:100000000C9435000C945D000C945D000C945D0024
:100010000C945D000C945D000C945D000C945D00EC
:100020000C945D000C945D000C945D000C945D00DC
:100030000C945D000C945D000C945D000C945D00CC
:100040000C94DF000C945D000C9461010C945D0035
:100050000C945D000C945D000C945D000C945D00AC
:100060000C945D000C945D00AA0211241FBECFEF1A
:10007000D8E0DEBFCDBF11E0A0E0B1E0EEE6F9E0F0
:1000800002C005900D92A834B107D9F711E0A8E499
:10009000B1E001C01D92A83EB107E1F710E0CAE649
:1000A000D0E004C02297FE010E94B104C836D107F7
:1000B000C9F70E94D8000C94B5040C94000040913C
:1000C0003C0150913D01662757FD6095762F85EDE7
:1000D00091E020E030E00E940C0485ED91E060E0CA
:1000E00071E00E941B0360913C0170913D0185ED20
:1000F00091E00E94040485ED91E068E071E00E94C7
:100100001B0340913C0150913D01662757FD6095CE
:10011000762F85ED91E020E130E00E940C0485ED22
:1001200091E060E171E00E941B0340913C0150911D
:100130003D01662757FD6095762F85ED91E028E01B
:1001400030E00E940C0485ED91E068E171E00E94CE
:100150001B0340913C0150913D01662757FD60957E
:10016000762F85ED91E022E030E00E94210480911D
:100170003C0190913D018E37910509F4FFCF019626
:1001800090933D0180933C0108950F931F9305EDDB
:1001900011E0C80140E052EC61E070E00E949E0175
:1001A000C80160E271E00E943A031F910F91089527
:1001B0000E9427010E94C5000E945F00FDCF1F9290
:1001C0000F920FB60F9211242F933F938F939F930B
:1001D000AF93BF9380914C0190914D01A0914E013E
:1001E000B0914F01309150010196A11DB11D232FF7
:1001F0002D5F2D3720F02D570196A11DB11D2093A5
:10020000500180934C0190934D01A0934E01B09307
:100210004F018091480190914901A0914A01B0910C
:100220004B010196A11DB11D809348019093490196
:10023000A0934A01B0934B01BF91AF919F918F91D1
:100240003F912F910F900FBE0F901F9018957894AB
:1002500084B5826084BD84B5816084BD85B58260CB
:1002600085BD85B5816085BDEEE6F0E08081816069
:100270008083E1E8F0E0808182608083808181601A
:100280008083E0E8F0E0808181608083E1EBF0E052
:10029000808184608083E0EBF0E0808181608083F6
:1002A000EAE7F0E0808184608083808182608083DF
:1002B0008081816080838081806880831092C1000A
:1002C00008951F920F920FB60F9211242F933F9310
:1002D0004F935F936F937F938F939F93AF93BF934E
:1002E000EF93FF934091C600E091D101F091D201CC
:1002F000CF01019660E870E00E944B049C01809160
:10030000D3019091D4012817390739F0EF5AFE4FE5
:1003100040833093D2012093D101FF91EF91BF919F
:10032000AF919F918F917F916F915F914F913F918D
:100330002F910F900FBE0F901F9018955F926F92A4
:100340007F928F929F92AF92BF92CF92DF92EF9265
:10035000FF920F931F93CF93DF93EC013A014B0170
:10036000413482E458078FE0680780E078070CF09A
:100370007FC060E874E88EE190E0A40193010E94E0
:1003800080042150304040405040CA01B90122E071
:1003900030E040E050E00E94800459016A01A6016B
:1003A0009501209530954095509594E0220F331F8C
:1003B000441F551F9A95D1F760E074E284EF90E0F6
:1003C0000E948004CA01B9012FEF30E040E050E004
:1003D0000E942C04A40193010E948004C901815051
:1003E0009F4F181619061CF4522E5A9403C0552418
:1003F0005394521A60E079E08DE390E0A4019301F8
:100400000E9480042150304040405040CA01B90150
:1004100022E030E040E050E00E94800420953095DA
:100420004095509583E0220F331F441F551F8A9536
:10043000D1F760E074E284EF90E00E948004CA018A
:10044000B9012FEF30E040E050E00E942C04A401FD
:1004500093010E948004C90181509F4F181619060C
:100460001CF4822F815002C081E0821B851500F5AB
:10047000E885F98581E090E00A8802C0880F991F1D
:100480000A94E2F7808360E079E08DE390E0A401D4
:1004900093010E9480042150304040405040CA01E6
:1004A000B90122E030E040E050E00E94800404C046
:1004B000E885F98510829501EC81FD813083EE811C
:1004C000FF812083EA85FB85208141E050E0CA015D
:1004D0000E8402C0880F991F0A94E2F7282B20830C
:1004E000EA85FB852081CA010F8402C0880F991F0D
:1004F0000A94E2F7282B2083EA85FB85808108880F
:1005000002C0440F551F0A94E2F7842B8083DF91C9
:10051000CF911F910F91FF90EF90DF90CF90BF9000
:10052000AF909F908F907F906F905F900895FC01A7
:10053000A085B18521898C9190E0022E02C095950D
:1005400087950A94E2F780FFF6CF0484F585E02DC5
:100550006083089582E491E09093D6018093D50161
:1005600081E591E09093D8018093D70185EC90E0EC
:100570009093DA018093D90184EC90E09093DC01B0
:100580008093DB0180EC90E09093DE018093DD01AD
:1005900081EC90E09093E0018093DF0186EC90E0A5
:1005A0009093E2018093E10184E08093E30183E092
:1005B0008093E40187E08093E50185E08093E60184
:1005C00081E08093E70108950F931F93CF93DF930A
:1005D0008C01EB0109C02196D801ED91FC910190AD
:1005E000F081E02DC801099568816623A1F7DF91AC
:1005F000CF911F910F910895EF92FF920F931F9348
:10060000CF93DF938C017B01EA010CC0D7016D9180
:100610007D01D801ED91FC910190F081E02DC801A0
:1006200009952197209791F7DF91CF911F910F9115
:10063000FF90EF900895DC01ED91FC910280F38131
:10064000E02D099508950F931F938C01DC01ED9126
:10065000FC910190F081E02D6DE00995D801ED91BC
:10066000FC910190F081E02DC8016AE009951F918D
:100670000F9108950F931F938C010E941B03C801D3
:100680000E9423031F910F9108952F923F924F9242
:100690005F926F927F928F929F92AF92BF92CF9212
:1006A000DF92EF92FF920F931F93DF93CF93CDB71B
:1006B000DEB7A0970FB6F894DEBF0FBECDBF1C010A
:1006C0006A017B01411551056105710549F4DC01A1
:1006D000ED91FC910190F081E02D60E3099554C00B
:1006E000882499245401422E55246624772401E05D
:1006F00010E00C0F1D1F080D191DC701B601A30145
:1007000092010E945E04F80160830894811C911C90
:10071000A11CB11CC701B601A30192010E945E0495
:10072000C901DA016C017D01C114D104E104F104B5
:10073000F1F681E0E82EF12CEC0EFD1EE80CF91C20
:100740003E010894611C711CD501C4010197A109E7
:10075000B1096C01C818D90814C0F601EE0DFF1DCF
:1007600060816A3010F4605D01C0695CD101ED9177
:10077000FC910190F081E02DC10109950894E108F8
:10078000F1086E147F0449F7A0960FB6F894DEBF07
:100790000FBECDBFCF91DF911F910F91FF90EF90D2
:1007A000DF90CF90BF90AF909F908F907F906F9091
:1007B0005F904F903F902F900895EF92FF920F938C
:1007C0001F93CF93DF93EC017A018B0177FF0FC06A
:1007D000E881F9810190F081E02D6DE20995109595
:1007E0000095F094E094E11CF11C011D111DCE0157
:1007F000B801A7012AE00E944503DF91CF911F9124
:100800000F91FF90EF900895AB01662757FD60951B
:10081000762F0E94DD030895DC012115310541F496
:10082000ED91FC910190F081E02D642F09950895E0
:100830002A30310519F40E94DD0308950E94450312
:1008400008950F931F938C010E940C04C8010E940D
:1008500023031F910F910895629FD001739FF001B0
:10086000829FE00DF11D649FE00DF11D929FF00D40
:10087000839FF00D749FF00D659FF00D9927729F77
:10088000B00DE11DF91F639FB00DE11DF91FBD0102
:10089000CF011124089597FB092E07260AD077FD72
:1008A00004D049D006D000201AF4709561957F4F8E
:1008B0000895F6F7909581959F4F0895A1E21A2E1D
:1008C000AA1BBB1BFD010DC0AA1FBB1FEE1FFF1FF4
:1008D000A217B307E407F50720F0A21BB30BE40B44
:1008E000F50B661F771F881F991F1A9469F760958B
:1008F0007095809590959B01AC01BD01CF01089545
:1009000097FB092E05260ED057FD04D0D7DF0AD05D
:10091000001C38F450954095309521953F4F4F4F2E
:100920005F4F0895F6F790958095709561957F4F8C
:100930008F4F9F4F0895AA1BBB1B51E107C0AA1FF1
:10094000BB1FA617B70710F0A61BB70B881F991F70
:100950005A95A9F780959095BC01CD010895EE0FA9
:0E096000FF1F0590F491E02D0994F894FFCF4D
:10096E002C206465633A20002C206865783A2000BC
:10097E002C206F63743A20002C2062696E3A20009E
:10098E004153434949205461626C65207E2043687F
:10099E0061726163746572204D6170002100000008
:0809AE0000009702E402FC02C4
:00000001FF
