:100000000C9435000C945D000C945D000C945D0024
:100010000C945D000C945D000C945D000C945D00EC
:100020000C945D000C945D000C945D000C945D00DC
:100030000C945D000C945D000C945D000C945D00CC
:100040000C9492000C945D000C9414010C945D00CF
:100050000C945D000C945D000C945D000C945D00AC
:100060000C945D000C945D00990211241FBECFEF2B
:10007000D8E0DEBFCDBF11E0A0E0B1E0E6E2F9E0FC
:1000800002C005900D92A831B107D9F711E0A8E19F
:10009000B1E001C01D92AA3BB107E1F710E0CAE64A
:1000A000D0E004C02297FE010E948D04C836D1071B
:1000B000C9F70E948B000C9491040C94000087EA0D
:1000C00091E00E944A028823E1F087EA91E00E94D1
:1000D0005E02909319018093180187EA91E060E035
:1000E00071E00E940A03409118015091190166279E
:1000F00057FD6095762F87EA91E02AE030E00E9474
:10010000FD03089587EA91E040E052EC61E070E081
:100110000E94510108950E94DA000E9482000E940C
:100120005F00FDCF1F920F920FB60F9211242F93F5
:100130003F938F939F93AF93BF9380911E019091B4
:100140001F01A0912001B09121013091220101965F
:10015000A11DB11D232F2D5F2D3720F02D570196A6
:10016000A11DB11D2093220180931E0190931F01B8
:10017000A0932001B093210180911A0190911B015D
:10018000A0911C01B0911D010196A11DB11D80938C
:100190001A0190931B01A0931C01B0931D01BF9104
:1001A000AF919F918F913F912F910F900FBE0F9024
:1001B0001F901895789484B5826084BD84B5816061
:1001C00084BD85B5826085BD85B5816085BDEEE65F
:1001D000F0E0808181608083E1E8F0E080818260EE
:1001E0008083808181608083E0E8F0E080818160AD
:1001F0008083E1EBF0E0808184608083E0EBF0E0DD
:10020000808181608083EAE7F0E080818460808380
:10021000808182608083808181608083808180682A
:1002200080831092C10008951F920F920FB60F9213
:1002300011242F933F934F935F936F937F938F93EB
:100240009F93AF93BF93EF93FF934091C600E091CC
:10025000A301F091A401CF01019660E870E00E9433
:1002600027049C018091A5019091A60128173907C8
:1002700039F0ED5DFE4F40833093A4012093A3013C
:10028000FF91EF91BF91AF919F918F917F916F916E
:100290005F914F913F912F910F900FBE0F901F9044
:1002A00018955F926F927F928F929F92AF92BF92BA
:1002B000CF92DF92EF92FF920F931F93CF93DF9332
:1002C000EC013A014B01413482E458078FE06807A2
:1002D00080E078070CF07FC060E874E88EE190E081
:1002E000A40193010E945C042150304040405040E2
:1002F000CA01B90122E030E040E050E00E945C0415
:1003000059016A01A60195012095309540955095B7
:1003100094E0220F331F441F551F9A95D1F760E0D8
:1003200074E284EF90E00E945C04CA01B9012FEFEF
:1003300030E040E050E00E940804A40193010E94D4
:100340005C04C90181509F4F181619061CF4522EE7
:100350005A9403C055245394521A60E079E08DE317
:1003600090E0A40193010E945C0421503040404081
:100370005040CA01B90122E030E040E050E00E9464
:100380005C04209530954095509583E0220F331FF3
:10039000441F551F8A95D1F760E074E284EF90E026
:1003A0000E945C04CA01B9012FEF30E040E050E048
:1003B0000E940804A40193010E945C04C9018150B9
:1003C0009F4F181619061CF4822F815002C081E03D
:1003D000821B851500F5E885F98581E090E00A88A3
:1003E00002C0880F991F0A94E2F7808360E079E0E9
:1003F0008DE390E0A40193010E945C042150304001
:1004000040405040CA01B90122E030E040E050E0F5
:100410000E945C0404C0E885F98510829501EC8196
:10042000FD813083EE81FF812083EA85FB85208179
:1004300041E050E0CA010E8402C0880F991F0A945F
:10044000E2F7282B2083EA85FB852081CA010F84EF
:1004500002C0880F991F0A94E2F7282B2083EA85AF
:10046000FB858081088802C0440F551F0A94E2F77B
:10047000842B8083DF91CF911F910F91FF90EF909C
:10048000DF90CF90BF90AF909F908F907F906F90B4
:100490005F900895DC011296ED91FC911397E0585E
:1004A000FF4F8191919180589F4F20813181821B14
:1004B000930B60E870E00E9427040895CF93DF93C8
:1004C000DC011296ED91FC911397EF01CE57DF4FAF
:1004D00048815981E058FF4F80819181E058F04078
:1004E0008417950719F42FEF3FEF0CC0E40FF51FA9
:1004F0002081CA01019660E870E00E942704998378
:10050000888330E0C901DF91CF910895FC01A08577
:10051000B18521898C9190E0022E02C09595879536
:100520000A94E2F780FFF6CF0484F585E02D60831E
:10053000089581E191E09093A8018093A70183E25F
:1005400091E09093AA018093A90185EC90E09093AB
:10055000AC018093AB0184EC90E09093AE0180936A
:10056000AD0180EC90E09093B0018093AF0181ECFD
:1005700090E09093B2018093B10186EC90E090936B
:10058000B4018093B30184E08093B50183E080934C
:10059000B60187E08093B70185E08093B80181E0E0
:1005A0008093B90108950F931F93CF93DF938C012C
:1005B000EB0109C02196D801ED91FC910190F081E9
:1005C000E02DC801099568816623A1F7DF91CF91DD
:1005D0001F910F910895EF92FF920F931F93CF9366
:1005E000DF938C017B01EA010CC0D7016D917D0185
:1005F000D801ED91FC910190F081E02DC8010995A1
:100600002197209791F7DF91CF911F910F91FF9044
:10061000EF900895DC01ED91FC910280F381E02DD3
:10062000099508950F931F938C01DC01ED91FC91C6
:100630000190F081E02D6DE00995D801ED91FC91DC
:100640000190F081E02DC8016AE009951F910F919A
:1006500008952F923F924F925F926F927F928F9266
:100660009F92AF92BF92CF92DF92EF92FF920F9341
:100670001F93DF93CF93CDB7DEB7A0970FB6F89453
:10068000DEBF0FBECDBF1C016A017B0141155105C4
:100690006105710549F4DC01ED91FC910190F08157
:1006A000E02D60E3099554C0882499245401422E1A
:1006B00055246624772401E010E00C0F1D1F080D5F
:1006C000191DC701B601A30192010E943A04F80165
:1006D00060830894811C911CA11CB11CC701B60148
:1006E000A30192010E943A04C901DA016C017D0163
:1006F000C114D104E104F104F1F681E0E82EF12CFB
:10070000EC0EFD1EE80CF91C3E010894611C711CE6
:10071000D501C4010197A109B1096C01C818D90814
:1007200014C0F601EE0DFF1D60816A3010F4605DAB
:1007300001C0695CD101ED91FC910190F081E02D47
:10074000C10109950894E108F1086E147F0449F786
:10075000A0960FB6F894DEBF0FBECDBFCF91DF914C
:100760001F910F91FF90EF90DF90CF90BF90AF90CF
:100770009F908F907F906F905F904F903F902F90C1
:100780000895EF92FF920F931F93CF93DF93EC01A5
:100790007A018B0177FF0FC0E881F9810190F08128
:1007A000E02D6DE2099510950095F094E094E11C20
:1007B000F11C011D111DCE01B801A7012AE00E9404
:1007C0002903DF91CF911F910F91FF90EF90089532
:1007D000DC012115310541F4ED91FC910190F0818E
:1007E000E02D642F099508952A30310519F40E94EF
:1007F000C10308950E94290308950F931F938C014C
:100800000E94E803C8010E9412031F910F910895EE
:10081000629FD001739FF001829FE00DF11D649FE4
:10082000E00DF11D929FF00D839FF00D749FF00D70
:10083000659FF00D9927729FB00DE11DF91F639F11
:10084000B00DE11DF91FBD01CF011124089597FBE3
:10085000092E07260AD077FD04D049D006D0002003
:100860001AF4709561957F4F0895F6F790958195EC
:100870009F4F0895A1E21A2EAA1BBB1BFD010DC0BC
:10088000AA1FBB1FEE1FFF1FA217B307E407F50740
:1008900020F0A21BB30BE40BF50B661F771F881F1C
:1008A000991F1A9469F760957095809590959B01B2
:1008B000AC01BD01CF01089597FB092E05260ED08E
:1008C00057FD04D0D7DF0AD0001C38F4509540956E
:1008D000309521953F4F4F4F5F4F0895F6F7909514
:1008E0008095709561957F4F8F4F9F4F0895AA1BFC
:1008F000BB1B51E107C0AA1FBB1FA617B70710F00B
:10090000A61BB70B881F991F5A95A9F7809590953C
:10091000BC01CD010895EE0FFF1F0590F491E02D6D
:060920000994F894FFCFDA
:10092600492072656365697665643A2000000000B7
:08093600008602D302EB02006F
:00000001FF
