:100000000C9463000C948B000C948B000C948B006C
:100010000C948B000C948B000C948B000C948B0034
:100020000C948B000C948B000C948B000C94D201DC
:100030000C948B000C948B000C948B000C948B0014
:100040000C947A030C948B000C9493040C948B0006
:100050000C948B000C948B000C948B000C948B00F4
:100060000C948B000C948B000000000024002700EF
:100070002A0000000000250028002B0000000000DE
:1000800023002600290004040404040404040202DA
:100090000202020203030303030301020408102007
:1000A0004080010204081020010204081020000012
:1000B0000007000201000003040600000000000029
:1000C00000008F02180611241FBECFEFD8E0DEBF5C
:1000D000CDBF11E0A0E0B1E0EEEEF0E102C005908E
:1000E0000D92A433B107D9F712E0A4E3B1E001C047
:1000F0001D92A230B107E1F710E0C6ECD0E004C0D9
:100100002297FE010E947108C23CD107C9F70E94E4
:1001100073030C9475080C940000FC018091340169
:100120008C3090F480838F5F80933401815090E015
:10013000FC01EE0FFF1FE80FF91FEB5CFE4F88EB91
:100140009BE09283818308958FEF80830895FC0163
:1001500020812C30C0F58181992787FD909548E852
:1001600050E0481B590B440F551F440F551F64178F
:10017000750784F08281992787FD909548E552E0C4
:10018000481B590B440F551F440F551F6417750723
:100190000CF4AB01CA01AA2797FDA095BA2F0697C8
:1001A000A109B109880F991FAA1FBB1F4FB7F89467
:1001B00030E0F901EE0FFF1FE20FF31FEB5CFE4F83
:1001C000928381834FBF0895AF92BF92CF92DF9207
:1001D000EF92FF920F931F93CF93DF93EC019B015C
:1001E00082E0603278070CF048C077FF03C020E05F
:1001F00030E005C0653B710514F024EB30E000D021
:1002000000D0B901882777FD8095982F2981332761
:1002100027FD3095B8E8AB2EB12CA21AB30AAA0C70
:10022000BB1CAA0CBB1CCC24B7FCC094DC2CEA8100
:10023000FF27E7FDF09528E532E02E1B3F0B220F4C
:10024000331F220F331F442737FD4095542FEDB73E
:10025000FEB7218332834383548320E030E040E0C3
:1002600050E0E4EBEE2EF12C012D112D0E949707AA
:100270009B010F900F900F900F90CE01B9010E943B
:10028000A700DF91CF911F910F91FF90EF90DF902A
:10029000CF90BF90AF900895CF92DF92EF92FF92F0
:1002A0001F93CF93DF93EC01162F7A0169018881A8
:1002B0008C3008F064C0862F61E00E94260488819B
:1002C00090E0FC01EE0FFF1FE80FF91FEB5CFE4F03
:1002D0001F738081807C812B808380E292E08E1965
:1002E0009F0964E070E00E940B08698380E699E052
:1002F0008C199D0964E070E00E940B086A83A88154
:100300008A2F6CE00E94FF07682F70E0AB01440F5A
:10031000551F460F571F440F551F440F551F20E010
:1003200030E0C901840F951FFC01EE0FFF1FE80F9D
:10033000F91FEB5CFE4F808186FD15C02F5F3F4F9C
:100340002C30310571F724C01092800082E0809338
:1003500081001092850010928400B19A80916F0004
:10036000826080936F008A2F90E0FC01EE0FFF1FE8
:10037000E80FF91FEB5CFE4F8081806480838881E9
:10038000DF91CF911F91FF90EF90DF90CF90089574
:10039000672BD1F2E8CF40E252E020E639E00E943C
:1003A0004C0108951F920F920FB60F9211242F93B4
:1003B0003F934F935F936F937F938F939F93AF93ED
:1003C000BF93EF93FF938091590187FF05C010926F
:1003D0008500109284002BC020915901332727FDFE
:1003E00030958091340190E02817390704F5809109
:1003F0005901992787FD9095FC01EE0FFF1FE80F2B
:10040000F91FEB5CFE4F808186FF11C0809159017E
:10041000992787FD9095FC01EE0FFF1FE80FF91F4C
:10042000EB5CFE4F80818F7360E00E9446048091F8
:1004300059018F5F8093590120915901332727FD7E
:1004400030958091340190E0281739070CF04EC0A8
:10045000809159018C300CF049C02091840030917A
:10046000850080915901992787FD9095FC01EE0F39
:10047000FF1FE80FF91FEB5CFE4F81819281280F6F
:10048000391F309389002093880080915901992762
:1004900087FD9095FC01EE0FFF1FE80FF91FEB5C45
:1004A000FE4F808186FF2AC080915901992787FDE0
:1004B0009095FC01EE0FFF1FE80FF91FEB5CFE4F5C
:1004C00080818F7361E00E94460418C080E49CE93B
:1004D00005C08091840090918500049690938900D6
:1004E000809388008FEF8093590108C08091840029
:1004F0009091850084549C4948F3EBCFFF91EF9194
:10050000BF91AF919F918F917F916F915F914F912B
:100510003F912F910F900FBE0F901F9018958AE575
:1005200091E00E948D008DE591E00E948D0008957C
:1005300010C08FEE91E041E450E060E070E020E018
:1005400030E00E9482076CE271E080E090E00E945F
:10055000C2038FEE91E00E94C905882351F30895EC
:10056000CF93DF93C4EBD0E08FEE91E00E94C905FA
:10057000882309F47BC08FEE91E00E94DD05909303
:100580006101809360018533910509F451C0863380
:1005900091053CF482339105C9F1C49709F058C024
:1005A00007C08633910591F0C89709F051C020C06B
:1005B00080912701909128018B30910514F00A97C2
:1005C0000DC0109228011092270142C0809127018E
:1005D000909128018A3A910534F40A969093280163
:1005E0008093270135C0D0932801C093270130C0E4
:1005F00080912501909126018B30910514F00A9786
:100600000DC0109226011092250122C08091250173
:10061000909126018A3A910534F40A969093260126
:100620008093250115C0D0932601C093250110C0E9
:100630008091230161E00E94460460EB74E080E059
:1006400090E00E94C2038091230160E00E94460472
:100650008FEE91E060E071E00E94A8066091600179
:10066000709161018FEE91E00E9472076091270105
:10067000709128018AE591E00E94E40060912501D3
:10068000709126018DE591E00E94E4006FE070E03A
:1006900080E090E00E94C20367CF0F931F93809188
:1006A000230161E00E9426048AE591E069E070E0A0
:1006B0000E94CB018DE591E06AE070E00E94CB01E1
:1006C0000FEE11E0C80140E052EC61E070E00E94E2
:1006D000D004C80169E071E00E94A8060E94980257
:1006E0001F910F9108950E94EC030E944D030E94F8
:1006F000B002FDCF1F920F920FB60F9211242F93CD
:100700003F938F939F93AF93BF9380916601909196
:100710006701A0916801B091690130916A01019669
:10072000A11DB11D232F2D5F2D3720F02D570196D0
:10073000A11DB11D20936A0180936601909367010A
:10074000A0936801B0936901809162019091630167
:10075000A0916401B09165010196A11DB11D809326
:10076000620190936301A0936401B0936501BF910E
:10077000AF919F918F913F912F910F900FBE0F904E
:100780001F901895EF92FF920F931F937B018C019E
:100790008FB7F894409166015091670160916801AC
:1007A000709169018FBF2FB7F89480916601909185
:1007B0006701A0916801B09169012FBF841B950B5F
:1007C000A60BB70BE816F9060A071B0760F71F917F
:1007D0000F91FF90EF900895789484B5826084BD66
:1007E00084B5816084BD85B5826085BD85B5816035
:1007F00085BDEEE6F0E0808181608083E1E8F0E095
:10080000808182608083808181608083E0E8F0E085
:10081000808181608083E1EBF0E08081846080836F
:10082000E0EBF0E0808181608083EAE7F0E08081A6
:100830008460808380818260808380818160808306
:100840008081806880831092C1000895282F30E055
:10085000C90186569F4FFC0194912A573F4FF901D9
:100860008491882391F0E82FF0E0EE0FFF1FE85904
:10087000FF4FA591B491662329F48C91909589231B
:100880008C9308958C91892B8C930895482F50E078
:10089000CA0182559F4FFC012491CA0186569F4F81
:1008A000FC0194914A575F4FFA0134913323D1F1FF
:1008B000222331F1233021F4809180008F7705C00D
:1008C000243031F4809180008F7D8093800018C0A7
:1008D000213019F484B58F7704C0223021F484B517
:1008E0008F7D84BD0DC0263021F48091B0008F77BC
:1008F00005C0273029F48091B0008F7D8093B0002F
:10090000E32FF0E0EE0FFF1FEE58FF4FA591B491DB
:10091000662329F48C91909589238C9308958C916A
:10092000892B8C9308951F920F920FB60F9211246A
:100930002F933F934F935F936F937F938F939F93E7
:10094000AF93BF93EF93FF934091C600E091EB010B
:10095000F091EC01CF01019660E870E00E940B0875
:100960009C018091ED019091EE012817390739F033
:10097000E559FE4F40833093EC012093EB01FF914A
:10098000EF91BF91AF919F918F917F916F915F9107
:100990004F913F912F910F900FBE0F901F90189580
:1009A0005F926F927F928F929F92AF92BF92CF92FF
:1009B000DF92EF92FF920F931F93CF93DF93EC019F
:1009C0003A014B01413482E458078FE0680780E028
:1009D00078070CF07FC060E874E88EE190E0A40135
:1009E00093010E9440082150304040405040CA01CD
:1009F000B90122E030E040E050E00E944008590197
:100A00006A01A6019501209530954095509594E096
:100A1000220F331F441F551F9A95D1F760E074E2EF
:100A200084EF90E00E944008CA01B9012FEF30E046
:100A300040E050E00E94E007A40193010E944008BA
:100A4000C90181509F4F181619061CF4522E5A9452
:100A500003C055245394521A60E079E08DE390E08E
:100A6000A40193010E944008215030404040504072
:100A7000CA01B90122E030E040E050E00E944008A5
:100A8000209530954095509583E0220F331F441FE9
:100A9000551F8A95D1F760E074E284EF90E00E94E0
:100AA0004008CA01B9012FEF30E040E050E00E9459
:100AB000E007A40193010E944008C90181509F4FA3
:100AC000181619061CF4822F815002C081E0821B87
:100AD000851500F5E885F98581E090E00A8802C077
:100AE000880F991F0A94E2F7808360E079E08DE334
:100AF00090E0A40193010E94400821503040404002
:100B00005040CA01B90122E030E040E050E00E94CC
:100B1000400804C0E885F98510829501EC81FD81CB
:100B20003083EE81FF812083EA85FB85208141E0CF
:100B300050E0CA010E8402C0880F991F0A94E2F7A0
:100B4000282B2083EA85FB852081CA010F8402C0FF
:100B5000880F991F0A94E2F7282B2083EA85FB85EA
:100B60008081088802C0440F551F0A94E2F7842B45
:100B70008083DF91CF911F910F91FF90EF90DF90D5
:100B8000CF90BF90AF909F908F907F906F905F902D
:100B90000895DC011296ED91FC911397E058FF4FF8
:100BA0008191919180589F4F20813181821B930BBD
:100BB00060E870E00E940B080895CF93DF93DC019A
:100BC0001296ED91FC911397EF01CE57DF4F4881BC
:100BD0005981E058FF4F80819181E058F04084179F
:100BE000950719F42FEF3FEF0CC0E40FF51F20819C
:100BF000CA01019660E870E00E940B08998388831F
:100C000030E0C901DF91CF910895FC01A085B18545
:100C100021898C9190E0022E02C0959587950A94C7
:100C2000E2F780FFF6CF0484F585E02D6083089518
:100C30008DE291E09093F0018093EF018BE691E0DB
:100C40009093F2018093F10185EC90E09093F40190
:100C50008093F30184EC90E09093F6018093F5018A
:100C600080EC90E09093F8018093F70181EC90E0A4
:100C70009093FA018093F90186EC90E09093FC0147
:100C80008093FB0184E08093FD0183E08093FE016B
:100C900087E08093FF0185E08093000281E08093EC
:100CA000010208950F931F93CF93DF938C01EB0103
:100CB00009C02196D801ED91FC910190F081E02DC1
:100CC000C801099568816623A1F7DF91CF911F9133
:100CD0000F910895EF92FF920F931F93CF93DF939D
:100CE0008C017B01EA010CC0D7016D917D01D80117
:100CF000ED91FC910190F081E02DC80109952197BB
:100D0000209791F7DF91CF911F910F91FF90EF9076
:100D10000895DC01ED91FC910280F381E02D0995AD
:100D200008950F931F938C01DC01ED91FC910190CC
:100D3000F081E02D6DE00995D801ED91FC910190D5
:100D4000F081E02DC8016AE009951F910F91089587
:100D50000F931F938C010E948906C8010E9491067F
:100D60001F910F9108952F923F924F925F926F9231
:100D70007F928F929F92AF92BF92CF92DF92EF922B
:100D8000FF920F931F93DF93CF93CDB7DEB7A0975A
:100D90000FB6F894DEBF0FBECDBF1C016A017B0108
:100DA000411551056105710549F4DC01ED91FC9196
:100DB0000190F081E02D60E3099554C088249924C6
:100DC0005401422E55246624772401E010E00C0FD4
:100DD0001D1F080D191DC701B601A30192010E9434
:100DE0001E08F80160830894811C911CA11CB11C91
:100DF000C701B601A30192010E941E08C901DA01D0
:100E00006C017D01C114D104E104F104F1F681E02B
:100E1000E82EF12CEC0EFD1EE80CF91C3E010894A6
:100E2000611C711CD501C4010197A109B1096C01B4
:100E3000C818D90814C0F601EE0DFF1D60816A3094
:100E400010F4605D01C0695CD101ED91FC910190ED
:100E5000F081E02DC10109950894E108F1086E14B4
:100E60007F0449F7A0960FB6F894DEBF0FBECDBF42
:100E7000CF91DF911F910F91FF90EF90DF90CF9076
:100E8000BF90AF909F908F907F906F905F904F90AA
:100E90003F902F900895EF92FF920F931F93CF935F
:100EA000DF93EC017A018B0177FF0FC0E881F981B4
:100EB0000190F081E02D6DE2099510950095F09478
:100EC000E094E11CF11C011D111DCE01B801A70128
:100ED0002AE00E94B306DF91CF911F910F91FF90FE
:100EE000EF9008950F931F938C01AB01662757FD78
:100EF0006095762F0E944B07C8010E9491061F91B2
:100F00000F910895DC012115310541F4ED91FC911B
:100F10000190F081E02D642F099508952A30310564
:100F200019F40E944B0708950E94B30608952F926A
:100F30003F924F925F926F927F928F929F92AF9269
:100F4000BF92CF92DF92EF92FF920F931F93DF93A6
:100F5000CF93CDB7DEB73B014C0119012A016D8952
:100F60007E898F89988D6A197B098C099D09621A7F
:100F7000730A840A950AA40193010E94E007E2180B
:100F8000F30804091509A80197010E9440082A0DD9
:100F90003B1D4C1D5D1DB901CA01CF91DF911F9111
:100FA0000F91FF90EF90DF90CF90BF90AF909F9008
:100FB0008F907F906F905F904F903F902F9008950B
:100FC000629FD001739FF001829FE00DF11D649F2D
:100FD000E00DF11D929FF00D839FF00D749FF00DB9
:100FE000659FF00D9927729FB00DE11DF91F639F5A
:100FF000B00DE11DF91FBD01CF0111240895991B0A
:1010000079E004C0991F961708F0961B881F7A95FF
:10101000C9F78095089597FB092E07260AD077FD1A
:1010200004D049D006D000201AF4709561957F4F06
:101030000895F6F7909581959F4F0895A1E21A2E95
:10104000AA1BBB1BFD010DC0AA1FBB1FEE1FFF1F6C
:10105000A217B307E407F50720F0A21BB30BE40BBC
:10106000F50B661F771F881F991F1A9469F7609503
:101070007095809590959B01AC01BD01CF010895BD
:1010800097FB092E05260ED057FD04D0D7DF0AD0D6
:10109000001C38F450954095309521953F4F4F4FA7
:1010A0005F4F0895F6F790958095709561957F4F05
:1010B0008F4F9F4F0895AA1BBB1B51E107C0AA1F6A
:1010C000BB1FA617B70710F0A61BB70B881F991FE9
:1010D0005A95A9F780959095BC01CD010895EE0F22
:0E10E000FF1F0590F491E02D0994F894FFCFC6
:1010EE00526563696576656400507265737320613D
:1010FE006E79206B657920746F20626567696E2E3C
:10110E002E2E0005006E007800000000000506522D
:04111E00066A060057
:00000001FF
